{
	"data": {
		"bytecode": {
			"linkReferences": {},
			"object": "60806040819052600180546001600160a01b031916733772f434d796a1b974e9b2cd37055a075f3450be17905561026a38819003908190833981016040819052610048916100ea565b803410156100715760405162461bcd60e51b815260040161006890610105565b60405180910390fd5b6001546040516000916001600160a01b031690839061008f90610102565b60006040518083038185875af1925050503d80600081146100cc576040519150601f19603f3d011682016040523d82523d6000602084013e6100d1565b606091505b50509050806100df57600080fd5b50506000805561012f565b6000602082840312156100fb578081fd5b5051919050565b90565b60208082526010908201526f496e73756666696369656e742066656560801b604082015260600190565b61012c8061013e6000396000f3fe6080604052348015600f57600080fd5b506004361060465760003560e01c80633874390414604b57806361bc221a1460655780638ada066e146076578063d09de08a14607c575b600080fd5b60516084565b604051605c919060b6565b60405180910390f35b606b6093565b604051605c919060ca565b606b6099565b6082609f565b005b6001546001600160a01b031681565b60005481565b60005490565b600160008082825460af919060d3565b9091555050565b6001600160a01b0391909116815260200190565b90815260200190565b6000821982111560f157634e487b7160e01b81526011600452602481fd5b50019056fea2646970667358221220b51d8f72f486312d4d7833ba7d161cdacced2d8a82637d70d6bd9e98a3dd4adf64736f6c63430008000033",
			"opcodes": "PUSH1 0x80 PUSH1 0x40 DUP2 SWAP1 MSTORE PUSH1 0x1 DUP1 SLOAD PUSH1 0x1 PUSH1 0x1 PUSH1 0xA0 SHL SUB NOT AND PUSH20 0x3772F434D796A1B974E9B2CD37055A075F3450BE OR SWAP1 SSTORE PUSH2 0x26A CODESIZE DUP2 SWAP1 SUB SWAP1 DUP2 SWAP1 DUP4 CODECOPY DUP2 ADD PUSH1 0x40 DUP2 SWAP1 MSTORE PUSH2 0x48 SWAP2 PUSH2 0xEA JUMP JUMPDEST DUP1 CALLVALUE LT ISZERO PUSH2 0x71 JUMPI PUSH1 0x40 MLOAD PUSH3 0x461BCD PUSH1 0xE5 SHL DUP2 MSTORE PUSH1 0x4 ADD PUSH2 0x68 SWAP1 PUSH2 0x105 JUMP JUMPDEST PUSH1 0x40 MLOAD DUP1 SWAP2 SUB SWAP1 REVERT JUMPDEST PUSH1 0x1 SLOAD PUSH1 0x40 MLOAD PUSH1 0x0 SWAP2 PUSH1 0x1 PUSH1 0x1 PUSH1 0xA0 SHL SUB AND SWAP1 DUP4 SWAP1 PUSH2 0x8F SWAP1 PUSH2 0x102 JUMP JUMPDEST PUSH1 0x0 PUSH1 0x40 MLOAD DUP1 DUP4 SUB DUP2 DUP6 DUP8 GAS CALL SWAP3 POP POP POP RETURNDATASIZE DUP1 PUSH1 0x0 DUP2 EQ PUSH2 0xCC JUMPI PUSH1 0x40 MLOAD SWAP2 POP PUSH1 0x1F NOT PUSH1 0x3F RETURNDATASIZE ADD AND DUP3 ADD PUSH1 0x40 MSTORE RETURNDATASIZE DUP3 MSTORE RETURNDATASIZE PUSH1 0x0 PUSH1 0x20 DUP5 ADD RETURNDATACOPY PUSH2 0xD1 JUMP JUMPDEST PUSH1 0x60 SWAP2 POP JUMPDEST POP POP SWAP1 POP DUP1 PUSH2 0xDF JUMPI PUSH1 0x0 DUP1 REVERT JUMPDEST POP POP PUSH1 0x0 DUP1 SSTORE PUSH2 0x12F JUMP JUMPDEST PUSH1 0x0 PUSH1 0x20 DUP3 DUP5 SUB SLT ISZERO PUSH2 0xFB JUMPI DUP1 DUP2 REVERT JUMPDEST POP MLOAD SWAP2 SWAP1 POP JUMP JUMPDEST SWAP1 JUMP JUMPDEST PUSH1 0x20 DUP1 DUP3 MSTORE PUSH1 0x10 SWAP1 DUP3 ADD MSTORE PUSH16 0x496E73756666696369656E7420666565 PUSH1 0x80 SHL PUSH1 0x40 DUP3 ADD MSTORE PUSH1 0x60 ADD SWAP1 JUMP JUMPDEST PUSH2 0x12C DUP1 PUSH2 0x13E PUSH1 0x0 CODECOPY PUSH1 0x0 RETURN INVALID PUSH1 0x80 PUSH1 0x40 MSTORE CALLVALUE DUP1 ISZERO PUSH1 0xF JUMPI PUSH1 0x0 DUP1 REVERT JUMPDEST POP PUSH1 0x4 CALLDATASIZE LT PUSH1 0x46 JUMPI PUSH1 0x0 CALLDATALOAD PUSH1 0xE0 SHR DUP1 PUSH4 0x38743904 EQ PUSH1 0x4B JUMPI DUP1 PUSH4 0x61BC221A EQ PUSH1 0x65 JUMPI DUP1 PUSH4 0x8ADA066E EQ PUSH1 0x76 JUMPI DUP1 PUSH4 0xD09DE08A EQ PUSH1 0x7C JUMPI JUMPDEST PUSH1 0x0 DUP1 REVERT JUMPDEST PUSH1 0x51 PUSH1 0x84 JUMP JUMPDEST PUSH1 0x40 MLOAD PUSH1 0x5C SWAP2 SWAP1 PUSH1 0xB6 JUMP JUMPDEST PUSH1 0x40 MLOAD DUP1 SWAP2 SUB SWAP1 RETURN JUMPDEST PUSH1 0x6B PUSH1 0x93 JUMP JUMPDEST PUSH1 0x40 MLOAD PUSH1 0x5C SWAP2 SWAP1 PUSH1 0xCA JUMP JUMPDEST PUSH1 0x6B PUSH1 0x99 JUMP JUMPDEST PUSH1 0x82 PUSH1 0x9F JUMP JUMPDEST STOP JUMPDEST PUSH1 0x1 SLOAD PUSH1 0x1 PUSH1 0x1 PUSH1 0xA0 SHL SUB AND DUP2 JUMP JUMPDEST PUSH1 0x0 SLOAD DUP2 JUMP JUMPDEST PUSH1 0x0 SLOAD SWAP1 JUMP JUMPDEST PUSH1 0x1 PUSH1 0x0 DUP1 DUP3 DUP3 SLOAD PUSH1 0xAF SWAP2 SWAP1 PUSH1 0xD3 JUMP JUMPDEST SWAP1 SWAP2 SSTORE POP POP JUMP JUMPDEST PUSH1 0x1 PUSH1 0x1 PUSH1 0xA0 SHL SUB SWAP2 SWAP1 SWAP2 AND DUP2 MSTORE PUSH1 0x20 ADD SWAP1 JUMP JUMPDEST SWAP1 DUP2 MSTORE PUSH1 0x20 ADD SWAP1 JUMP JUMPDEST PUSH1 0x0 DUP3 NOT DUP3 GT ISZERO PUSH1 0xF1 JUMPI PUSH4 0x4E487B71 PUSH1 0xE0 SHL DUP2 MSTORE PUSH1 0x11 PUSH1 0x4 MSTORE PUSH1 0x24 DUP2 REVERT JUMPDEST POP ADD SWAP1 JUMP INVALID LOG2 PUSH5 0x6970667358 0x22 SLT KECCAK256 0xB5 SAR DUP16 PUSH19 0xF486312D4D7833BA7D161CDACCED2D8A82637D PUSH17 0xD6BD9E98A3DD4ADF64736F6C6343000800 STOP CALLER "
		},
		"gasEstimates": {
			"creation": {
				"codeDepositCost": "60000",
				"executionCost": "infinite",
				"totalCost": "infinite"
			},
			"external": {
				"counter()": "1028",
				"getCounter()": "1050",
				"increment()": "21083",
				"moderator()": "1048"
			}
		},
		"methodIdentifiers": {
			"counter()": "61bc221a",
			"getCounter()": "8ada066e",
			"increment()": "d09de08a",
			"moderator()": "38743904"
		}
	},
	"abi": [
		{
			"inputs": [
				{
					"internalType": "uint256",
					"name": "feeInEther",
					"type": "uint256"
				}
			],
			"stateMutability": "payable",
			"type": "constructor"
		},
		{
			"inputs": [],
			"name": "counter",
			"outputs": [
				{
					"internalType": "uint256",
					"name": "",
					"type": "uint256"
				}
			],
			"stateMutability": "view",
			"type": "function"
		},
		{
			"inputs": [],
			"name": "getCounter",
			"outputs": [
				{
					"internalType": "uint256",
					"name": "",
					"type": "uint256"
				}
			],
			"stateMutability": "view",
			"type": "function"
		},
		{
			"inputs": [],
			"name": "increment",
			"outputs": [],
			"stateMutability": "nonpayable",
			"type": "function"
		},
		{
			"inputs": [],
			"name": "moderator",
			"outputs": [
				{
					"internalType": "address",
					"name": "",
					"type": "address"
				}
			],
			"stateMutability": "view",
			"type": "function"
		}
	]
}