{
	"data": {
		"bytecode": {
			"linkReferences": {},
			"object": "60806040819052600180546001600160a01b031916733772f434d796a1b974e9b2cd37055a075f3450be17905561022238819003908190833981016040819052610048916100f5565b8034101561008f5760405162461bcd60e51b815260206004820152601060248201526f496e73756666696369656e742066656560801b604482015260640160405180910390fd5b6001546040515f916001600160a01b03169083908381818185875af1925050503d805f81146100d9576040519150601f19603f3d011682016040523d82523d5f602084013e6100de565b606091505b50509050806100eb575f80fd5b50505f805561010c565b5f60208284031215610105575f80fd5b5051919050565b610109806101195f395ff3fe6080604052348015600e575f80fd5b50600436106044575f3560e01c80633874390414604857806361bc221a1460775780638ada066e14608b578063d09de08a146091575b5f80fd5b600154605a906001600160a01b031681565b6040516001600160a01b0390911681526020015b60405180910390f35b607e5f5481565b604051908152602001606e565b5f54607e565b60976099565b005b60015f8082825460a8919060af565b9091555050565b8082018082111560cd57634e487b7160e01b5f52601160045260245ffd5b9291505056fea2646970667358221220877d4dad5815f3c90bfc1a65c57d0dbc68897e9823c94cbc66978958c154bb2564736f6c63430008140033",
			"opcodes": "PUSH1 0x80 PUSH1 0x40 DUP2 SWAP1 MSTORE PUSH1 0x1 DUP1 SLOAD PUSH1 0x1 PUSH1 0x1 PUSH1 0xA0 SHL SUB NOT AND PUSH20 0x3772F434D796A1B974E9B2CD37055A075F3450BE OR SWAP1 SSTORE PUSH2 0x222 CODESIZE DUP2 SWAP1 SUB SWAP1 DUP2 SWAP1 DUP4 CODECOPY DUP2 ADD PUSH1 0x40 DUP2 SWAP1 MSTORE PUSH2 0x48 SWAP2 PUSH2 0xF5 JUMP JUMPDEST DUP1 CALLVALUE LT ISZERO PUSH2 0x8F JUMPI PUSH1 0x40 MLOAD PUSH3 0x461BCD PUSH1 0xE5 SHL DUP2 MSTORE PUSH1 0x20 PUSH1 0x4 DUP3 ADD MSTORE PUSH1 0x10 PUSH1 0x24 DUP3 ADD MSTORE PUSH16 0x496E73756666696369656E7420666565 PUSH1 0x80 SHL PUSH1 0x44 DUP3 ADD MSTORE PUSH1 0x64 ADD PUSH1 0x40 MLOAD DUP1 SWAP2 SUB SWAP1 REVERT JUMPDEST PUSH1 0x1 SLOAD PUSH1 0x40 MLOAD PUSH0 SWAP2 PUSH1 0x1 PUSH1 0x1 PUSH1 0xA0 SHL SUB AND SWAP1 DUP4 SWAP1 DUP4 DUP2 DUP2 DUP2 DUP6 DUP8 GAS CALL SWAP3 POP POP POP RETURNDATASIZE DUP1 PUSH0 DUP2 EQ PUSH2 0xD9 JUMPI PUSH1 0x40 MLOAD SWAP2 POP PUSH1 0x1F NOT PUSH1 0x3F RETURNDATASIZE ADD AND DUP3 ADD PUSH1 0x40 MSTORE RETURNDATASIZE DUP3 MSTORE RETURNDATASIZE PUSH0 PUSH1 0x20 DUP5 ADD RETURNDATACOPY PUSH2 0xDE JUMP JUMPDEST PUSH1 0x60 SWAP2 POP JUMPDEST POP POP SWAP1 POP DUP1 PUSH2 0xEB JUMPI PUSH0 DUP1 REVERT JUMPDEST POP POP PUSH0 DUP1 SSTORE PUSH2 0x10C JUMP JUMPDEST PUSH0 PUSH1 0x20 DUP3 DUP5 SUB SLT ISZERO PUSH2 0x105 JUMPI PUSH0 DUP1 REVERT JUMPDEST POP MLOAD SWAP2 SWAP1 POP JUMP JUMPDEST PUSH2 0x109 DUP1 PUSH2 0x119 PUSH0 CODECOPY PUSH0 RETURN INVALID PUSH1 0x80 PUSH1 0x40 MSTORE CALLVALUE DUP1 ISZERO PUSH1 0xE JUMPI PUSH0 DUP1 REVERT JUMPDEST POP PUSH1 0x4 CALLDATASIZE LT PUSH1 0x44 JUMPI PUSH0 CALLDATALOAD PUSH1 0xE0 SHR DUP1 PUSH4 0x38743904 EQ PUSH1 0x48 JUMPI DUP1 PUSH4 0x61BC221A EQ PUSH1 0x77 JUMPI DUP1 PUSH4 0x8ADA066E EQ PUSH1 0x8B JUMPI DUP1 PUSH4 0xD09DE08A EQ PUSH1 0x91 JUMPI JUMPDEST PUSH0 DUP1 REVERT JUMPDEST PUSH1 0x1 SLOAD PUSH1 0x5A SWAP1 PUSH1 0x1 PUSH1 0x1 PUSH1 0xA0 SHL SUB AND DUP2 JUMP JUMPDEST PUSH1 0x40 MLOAD PUSH1 0x1 PUSH1 0x1 PUSH1 0xA0 SHL SUB SWAP1 SWAP2 AND DUP2 MSTORE PUSH1 0x20 ADD JUMPDEST PUSH1 0x40 MLOAD DUP1 SWAP2 SUB SWAP1 RETURN JUMPDEST PUSH1 0x7E PUSH0 SLOAD DUP2 JUMP JUMPDEST PUSH1 0x40 MLOAD SWAP1 DUP2 MSTORE PUSH1 0x20 ADD PUSH1 0x6E JUMP JUMPDEST PUSH0 SLOAD PUSH1 0x7E JUMP JUMPDEST PUSH1 0x97 PUSH1 0x99 JUMP JUMPDEST STOP JUMPDEST PUSH1 0x1 PUSH0 DUP1 DUP3 DUP3 SLOAD PUSH1 0xA8 SWAP2 SWAP1 PUSH1 0xAF JUMP JUMPDEST SWAP1 SWAP2 SSTORE POP POP JUMP JUMPDEST DUP1 DUP3 ADD DUP1 DUP3 GT ISZERO PUSH1 0xCD JUMPI PUSH4 0x4E487B71 PUSH1 0xE0 SHL PUSH0 MSTORE PUSH1 0x11 PUSH1 0x4 MSTORE PUSH1 0x24 PUSH0 REVERT JUMPDEST SWAP3 SWAP2 POP POP JUMP INVALID LOG2 PUSH5 0x6970667358 0x22 SLT KECCAK256 DUP8 PUSH30 0x4DAD5815F3C90BFC1A65C57D0DBC68897E9823C94CBC66978958C154BB25 PUSH5 0x736F6C6343 STOP ADDMOD EQ STOP CALLER "
		},
		"gasEstimates": {
			"creation": {
				"codeDepositCost": "53000",
				"executionCost": "infinite",
				"totalCost": "infinite"
			},
			"external": {
				"counter()": "2293",
				"getCounter()": "2312",
				"increment()": "24486",
				"moderator()": "2303"
			}
		},
		"methodIdentifiers": {
			"counter()": "61bc221a",
			"getCounter()": "8ada066e",
			"increment()": "d09de08a",
			"moderator()": "38743904"
		}
	},
	"abi": [
		{
			"inputs": [
				{
					"internalType": "uint256",
					"name": "feeInEther",
					"type": "uint256"
				}
			],
			"stateMutability": "payable",
			"type": "constructor"
		},
		{
			"inputs": [],
			"name": "counter",
			"outputs": [
				{
					"internalType": "uint256",
					"name": "",
					"type": "uint256"
				}
			],
			"stateMutability": "view",
			"type": "function"
		},
		{
			"inputs": [],
			"name": "getCounter",
			"outputs": [
				{
					"internalType": "uint256",
					"name": "",
					"type": "uint256"
				}
			],
			"stateMutability": "view",
			"type": "function"
		},
		{
			"inputs": [],
			"name": "increment",
			"outputs": [],
			"stateMutability": "nonpayable",
			"type": "function"
		},
		{
			"inputs": [],
			"name": "moderator",
			"outputs": [
				{
					"internalType": "address",
					"name": "",
					"type": "address"
				}
			],
			"stateMutability": "view",
			"type": "function"
		}
	]
}